:020000042001D9
:109000005544454C00010100020000000000000032
:1090100053900120299101204F9001204B90012075
:109020001992012000000000000000000000000074
:109030000000000000000000000000000000000030
:04904000B1920120C8
:1090480070477047704770477047104B104A2DE9BA
:10905800F041884607460021934202D003F8011FD9
:10906800FAE70C4B0C4CE41AA41000251E46A54246
:1090780005D056F8253003B198470135F7E7414642
:10908800384600F00BF8BDE8F08100BFDF92012000
:1090980017930120409001204490012010B51B4CEB
:1090A8001B4B23604FF48022E260013A22611033A7
:1090B8000022626103F50011002243F8102C43F8E6
:1090C8000C2C43F8082C43F8042C10339942F4D1A3
:1090D8004FF00043A36100F0F5F80A23206290FBEB
:1090E800F3F03C2393FBF0F00A4B9FED0B7A5843C7
:1090F8004FF07C53A362094B6062D3ED007A67EEB0
:10910800877AFEEEC07AC4ED077A10BDE09201209E
:10911800000042C0008A66003EC3AE37D8920120E4
:10912800394B9FED3A4AD3ED0A5A93ED0B5AD3F8CF
:109138001CC02DE9F0435D69D3F818E01E681F696B
:10914800C90000EB0108F1462A46B7EE006AF1EEC5
:10915800004A804507EE909A00F10804E1444AD09D
:10916800F8EEE77A27EE847A17EE100A20F000402E
:1091780007EE900A02F5346077EEC67A384006EBBF
:10918800C00067EE877A90ED017A02F5D26067EE4B
:10919800A47A25EE077A384006EBC00067EE276A06
:1091A80090ED007A77EEA77A25EE077A07EA0200B3
:1091B80067EE277A25EEA67A67EEA57A83ED0D7A13
:1091C800C3ED0C7A14ED027A77EE877A14ED017A02
:1091D80044ED027AD3ED0D6A37EE267A06EBC0002D
:1091E80004ED017AC0ED007A77EE867A013AC0ED97
:1091F800017A2046ADE7C9086D1A0CFB01E15D61F3
:109208009961BDE8F08300BFE092012000000030C2
:1092180008B52DED028B08EE101A0128BAEEE08A87
:109228000AD005D3032835D11C4B83ED0A8A31E0D7
:109238001A4B83ED0B8A2DE000F044F8F5EE007A26
:109248000A23B4EEE78AB0FBF3F0144B80B2F1EED8
:1092580010FA186205D5124A92FBF0F080005862A5
:1092680018E0F6EE007AB4EEE78AF1EE10FA05D5CA
:109278000B4A92FBF0F0400058620BE0F6EE087AD9
:10928800B4EEE78AF1EE10FA4CBF054A054A92FBA4
:10929800F0F05862BDEC028B08BD00BFE0920120DF
:1092A80000F22B0000F91500054B00224FF0004199
:1092B8001A60DA601A615A619961DA61704700BF11
:0C92C800E09201205FF800F089CA07085E
:0892D8000000A04000000000AE
:0400000520019053F3
:00000001FF
