:020000042001D9
:10780000554D4F440001010002000000000000003F
:107810004B7801209F780120477801204378012090
:107820007579012000000000000000000000000049
:107830000000000000000000000000000000000048
:1078400070477047704770477047104B104A2DE9DA
:10785000F041884607460021934202D003F8011FF9
:10786000FAE70C4B0C4CE41AA41000251E46A54266
:1078700005D056F8253003B198470135F7E7414662
:10788000384600F00BF8BDE8F08100BF8F79012089
:10789000937901204078012040780120704710B58D
:1078A000029B2E4CDFED2E3A9FED2E3ADFED2E5A45
:1078B000DFED2E2A9FED2E2A5A00B7EE004A002354
:1078C000F0EE086A934247D0D4ED004AF0EC017A1A
:1078D00034EE647A27EE277A67EEA37AF4EEC37A61
:1078E000F1EE10FA2DDCF4EEE57AF1EE10FA10DD8F
:1078F000B8EE006AA7EEA66AB0EE005AA7EEE65A06
:10790000F0EE467AB0EE666AA5EE276A66EE257A54
:107910001CE0F4EEE27AF1EE10FA15D4F4EEC27A3D
:10792000F1EE10FA41BFB0EE006AA7EEA66AF8EEDB
:10793000087AE6EE067A54BF77EEA77A67EEA57A64
:1079400004E0F7EE007A01E0FFEE007AA4EEA77AF9
:107950000133A1EC017AB5E710BD00BF9079012099
:107960000000C842ABAA2A3FABAAAA3EABAA2ABFD4
:10797000ABAAAABE07EE901A20B9FAEEE07A024B43
:0C798000C3ED007A704700BF9079012031
:040000052001784B13
:00000001FF
