:020000042001D9
:109000005544454C00010100020000000000000032
:1090100053900120099101204F9001204B90012095
:1090200095920120000000000000000000000000F8
:109030000000000000000000000000000000000030
:049040002D9301204B
:1090480070477047704770477047104B104A2DE9BA
:10905800F041884607460021934202D003F8011FD9
:10906800FAE70C4B0C4CE41AA41000251E46A54246
:1090780005D056F8253003B198470135F7E7414642
:10908800384600F00BF8BDE8F08100BF4793012097
:10909800779301204090012044900120154A164BF7
:1090A8004FF4802110B5D16001391360116110337C
:1090B80000215161144603F50011002243F8102CD9
:1090C80043F80C2C43F8082C43F8042C103399422D
:1090D800F4D100F031F90A23A06190FBF3F03C23AE
:1090E80093FBF0F0054B58434FF07C53E06123624B
:1090F80010BD00BF48930120000042C0008A6600EE
:10910800594BDFED5A2A93ED081AD3ED090A9FED62
:10911800583ADFED583A9FED584ADFED584A9FED2F
:10912800585ADFED585A9FED586A2DE9F041D3F8A7
:109138001CE05D691E681F69C90000EB01084FEA61
:109148005E0C2A46F6EE001A804500F1080400F08D
:1091580085800CEB0200384006EBC000D0ED017AA8
:109168000EEB0200384006EBC00090ED007A60EE8E
:10917800A77A20EE877A61EE277A27EE017AC3ED87
:109188000B7A67EE077AB7EE082A67EE877A83EDDF
:109198000A7A61EEE77AF0EE636AE7EE027A07EAA6
:1091A800020006EBC000B0EE437AA7EEA27A013ABD
:1091B800B0EE650AE7EE276AB0EE667AF0EE446A2A
:1091C800E7EE276AB0EE457AA7EEA47AA7EE270A5B
:1091D800B0EE407AB0EE460AA7EE270A14ED027AFE
:1091E800C6EE807AB0EE650A37EE877A04ED027A29
:1091F800D3ED0B6A66EEA67A67EEA67A61EEE77A99
:10920800E6EE827AF0EE436AE7EEA26AB0EE632AEF
:10921800A6EEA72AF0EE426AB0EE442AA6EEA72AE6
:10922800F0EE456AE7EEA46AA6EEA70AF0EE406AF9
:10923800B0EE460AA6EEA70A54ED017AC2EE006A1D
:1092480077EEA67A44ED017AF7EE007A80ED007A9F
:1092580037EE277A80ED017A204675E7A5EBD10134
:109268005961BDE8F08100BF489301203684093D6B
:1092780072146F3D0CBD7C3EC847E2B6FF7EEB3CE6
:109288004D74DE3DAF96793D75667C3E08B52DED93
:10929800028B08EE101A0128BAEEE08A0AD005D32C
:1092A800032835D11C4B83ED088A31E01A4B83ED36
:1092B800098A2DE000F040F8F5EE007A0A23B4EEB2
:1092C800E78AB0FBF3F0144B80B2F1EE10FA986124
:1092D80005D5124A92FBF0F08000D86118E0F6EE4E
:1092E800007AB4EEE78AF1EE10FA05D50B4A92FB44
:1092F800F0F04000D8610BE0F6EE087AB4EEE78AA9
:10930800F1EE10FA4CBF054A054A92FBF0F0D8611D
:10931800BDEC028B08BD00BF4893012000F22B0072
:1093280000F91500034B00221A60DA601A615A61CD
:10933800704700BF489301205FF800F089CA07080A
:0400000520019053F3
:00000001FF
