:020000042001D9
:109000005544454C00010100020000000000000032
:1090100053900120099101204F9001204B90012095
:10902000119301200000000000000000000000007B
:109030000000000000000000000000000000000030
:04904000DD9B012093
:1090480070477047704770477047104B104A2DE9BA
:10905800F041884607460021934202D003F8011FD9
:10906800FAE70C4B0C4CE41AA41000251E46A54246
:1090780005D056F8253003B198470135F7E7414642
:10908800384600F00BF8BDE8F08100BFF79B0120DF
:10909800279C01204090012044900120154A164B3E
:1090A8004FF4802110B5D16001391360116110337C
:1090B80000215161144603F50011002243F8102CD9
:1090C80043F80C2C43F8082C43F8042C103399422D
:1090D800F4D100F089FD0A23A06190FBF3F03C2352
:1090E80093FBF0F0054B58434FF07C53E06123624B
:1090F80010BD00BFF89B0120000042C0008A660036
:109108002DE9F04F2DED0E8B764C9FED77BAD4F804
:109118001CB06769D4ED08DAD4F80080D4F8109050
:1091280094ED09EADFED71AA9FED71AADFED719A5E
:109138009FED719ADFED718A85B04FEAC10A00EBA5
:109148000A0300934FEA5B0301933D46009B834269
:1091580000F1080600F0B380019BDFED69CA9FEDBE
:1091680069CA2B4403EA090308EBC303D3ED017A68
:109178000BEB050303EA090308EBC30393ED007A3D
:109188006EEE277A2EEE077A6DEEA77A27EE2D7A05
:10919800C4ED0B7A67EE077AB6EE008A67EE877A37
:1091A800B7EE08DA68EE677A84ED0A7AE7EE0D7AA8
:1091B800B0EE6A7AA7EE8B7AF0EE4A6AE7EE276A93
:1091C800B0EE6C6AB0EE667AF0EE696AE7EE276A8E
:1091D800B0EE667AF0EE686AE7EE896AA6EEA76AEC
:1091E800F0EE466AB0EE4C6AA6EEA76AC7EE066ACB
:1091F80016EE900A00F038FA36A3D3E9002300F0FF
:1092080087FACDE9020156F8080C00F02DFA02465B
:109218000B46DDE9020100F0C9F800F08BFC46F8C6
:10922800080C94ED0B7A67EE077AF0EE4A6A67EE5F
:10923800877A0BEE900A68EE677AE7EE0D7AB0EE61
:109248006A7AA7EE8B7AE7EE276AB0EE667AF0EED6
:10925800696AE7EE276AB0EE667AF0EE686AE7EECA
:10926800896AE6EEA7CAACEEA7CAC7EE0C7A17EE73
:10927800900A00F0F9F919A3D3E9002300F048FA9D
:10928800CDE9020156F8040C00F0EEF90B4602464F
:10929800DDE9020100F08AF800F04CFC09EA050358
:1092A80008EBC303F7EE007A46F8040CC3ED00BAE6
:1092B8007BEEA7BA3046C3ED01BA013D46E7094B3C
:1092C800A7EBDA075F6105B0BDEC0E8BBDE8F08F48
:1092D800AFF30080996EE4759DA0E63F02FF195731
:1092E8009FA0E63FF89B01203684093D72146F3D2C
:1092F8000CBD7C3EC847E2B6FF7EEB3C4D74DE3DBC
:10930800AF96793D75667C3E08B52DED028B08EE6B
:10931800101A0128BAEEE08A0AD005D3032835D1FD
:109328001C4B83ED088A31E01A4B83ED098A2DE046
:1093380000F05AFCF5EE007A0A23B4EEE78AB0FB97
:10934800F3F0144B80B2F1EE10FA986105D5124A89
:1093580092FBF0F08000D86118E0F6EE007AB4EEE7
:10936800E78AF1EE10FA05D50B4A92FBF0F04000BF
:10937800D8610BE0F6EE087AB4EEE78AF1EE10FA5F
:109388004CBF054A054A92FBF0F0D861BDEC028B50
:1093980008BD00BFF89B012000F22B0000F9150062
:1093A80081F0004102E000BF83F0004330B54FEA8E
:1093B80041044FEA430594EA050F08BF90EA020FFB
:1093C8001FBF54EA000C55EA020C7FEA645C7FEA8E
:1093D800655C00F0E2804FEA5454D4EB5555B8BFB1
:1093E8006D420CDD2C4480EA020281EA030382EA22
:1093F800000083EA010180EA020281EA0303362DB4
:1094080088BF30BD11F0004F4FEA01314FF4801C86
:109418004CEA113102D0404261EB410113F0004F98
:109428004FEA03334CEA133302D0524263EB43034F
:1094380094EA050F00F0A780A4F10104D5F1200EED
:109448000DDB02FA0EFC22FA05F2801841F1000148
:1094580003FA0EF2801843FA05F359410EE0A5F11C
:1094680020050EF1200E012A03FA0EFC28BF4CF04D
:10947800020C43FA05F3C01851EBE37101F0004503
:1094880007D54FF0000EDCF1000C7EEB00006EEB10
:109498000101B1F5801F1BD3B1F5001F0CD349089A
:1094A8005FEA30004FEA3C0C04F101044FEA4452F1
:1094B80012F5800F80F09A80BCF1004F08BF5FEA78
:1094C800500C50F1000041EB045141EA050130BD58
:1094D8005FEA4C0C404141EB010111F4801FA4F1FB
:1094E8000104E9D191F0000F04BF01460020B1FA50
:1094F80081F308BF2033A3F10B03B3F120020CDA88
:109508000C3208DD02F1140CC2F10C0201FA0CF065
:1095180021FA02F10CE002F11402D8BFC2F1200CCA
:1095280001FA02F120FA0CFCDCBF41EA0C01904080
:10953800E41AA2BF01EB0451294330BD6FEA0404C9
:109548001F3C1CDA0C340EDC04F11404C4F12002B4
:1095580020FA04F001FA02F340EA030021FA04F3C6
:1095680045EA030130BDC4F10C04C4F1200220FA1D
:1095780002F001FA04F340EA0300294630BD21FA5B
:1095880004F0294630BD94F0000F83F4801306BF21
:1095980081F480110134013D4EE77FEA645C18BF15
:1095A8007FEA655C29D094EA050F08BF90EA020FAC
:1095B80005D054EA000C04BF1946104630BD91EAA4
:1095C800030F1EBF0021002030BD5FEA545C05D1A7
:1095D8004000494128BF41F0004130BD14F58004E6
:1095E8003CBF01F5801130BD01F0004545F0FE415A
:1095F80041F470014FF0000030BD7FEA645C1ABF8F
:10960800194610467FEA655C1CBF0B46024650EAC5
:10961800013406BF52EA033591EA030F41F40021F1
:1096280030BD00BF90F0000F04BF0021704730B577
:109638004FF4806404F132044FF000054FF000014C
:1096480050E700BF90F0000F04BF0021704730B50D
:109658004FF4806404F1320410F0004548BF4042E2
:109668004FF000013EE700BF42004FEAE2014FEA37
:1096780031014FEA02701FBF12F07F4393F07F4F12
:1096880081F06051704792F0000F14BF93F07F4F44
:10969800704730B54FF4607401F0004521F0004187
:1096A80020E700BF50EA010208BF704730B54FF00D
:1096B80000050AE050EA010208BF704730B511F012
:1096C800004502D5404261EB41014FF4806404F14A
:1096D80032045FEA915C3FF4DCAE4FF003025FEACC
:1096E800DC0C18BF03325FEADC0C18BF033202EB54
:1096F800DC02C2F1200300FA03FC20FA02F001FAAE
:1097080003FE40EA0E0021FA02F11444C1E600BF4C
:1097180070B54FF0FF0C4CF4E06C1CEA11541DBFFF
:109728001CEA135594EA0C0F95EA0C0F00F0DEF8CA
:109738002C4481EA030621EA4C5123EA4C5350EAAF
:10974800013518BF52EA033541F4801143F4801300
:1097580038D0A0FB02CE4FF00005E1FB02E506F091
:109768000042E0FB03E54FF00006E1FB03569CF0E6
:10977800000F18BF4EF0010EA4F1FF04B6F5007FEC
:1097880064F5407404D25FEA4E0E6D4146EB06065E
:1097980042EAC62141EA55514FEAC52040EA5E50E7
:1097A8004FEACE2EB4F1FD0C88BFBCF5E06F1ED891
:1097B800BEF1004F08BF5FEA500E50F1000041EBC8
:1097C800045170BD06F0004646EA010140EA020075
:1097D80081EA0301B4EB5C04C2BFD4EB0C0541EA97
:1097E800045170BD41F480114FF0000E013C00F3AC
:1097F800AB8014F1360FDEBF002001F0004170BDD0
:10980800C4F10004203C35DA0C341BDC04F11404E8
:10981800C4F1200500FA05F320FA04F001FA05F274
:1098280040EA020001F0004221F0004110EBD37041
:1098380021FA04F642EB06015EEA430E08BF20EA6D
:10984800D37070BDC4F10C04C4F1200500FA04F310
:1098580020FA05F001FA04F240EA020001F00041A2
:1098680010EBD37041F100015EEA430E08BF20EA15
:10987800D37070BDC4F1200500FA05F24EEA020E5D
:1098880020FA04F301FA05F243EA020321FA04F08C
:1098980001F0004121FA04F220EA020000EBD37043
:1098A8005EEA430E08BF20EAD37070BD94F0000F43
:1098B8000FD101F00046400041EB010111F4801F77
:1098C80008BF013CF7D041EA060195F0000F18BF28
:1098D800704703F00046520043EB030313F4801F64
:1098E80008BF013DF7D043EA0603704794EA0C0F1E
:1098F8000CEA135518BF95EA0C0F0CD050EA410634
:1099080018BF52EA4306D1D181EA030101F00041B0
:109918004FF0000070BD50EA410606BF10461946D8
:1099280052EA430619D094EA0C0F02D150EA0136E4
:1099380013D195EA0C0F05D152EA03361CBF104625
:1099480019460AD181EA030101F0004141F0FE41C4
:1099580041F470014FF0000070BD41F0FE4141F448
:10996800780170BD70B54FF0FF0C4CF4E06C1CEA48
:1099780011541DBF1CEA135594EA0C0F95EA0C0FFD
:1099880000F0A7F8A4EB050481EA030E52EA0335B8
:109998004FEA013100F088804FEA03334FF08055D9
:1099A80045EA131343EA12634FEA022245EA111506
:1099B80045EA10654FEA00260EF000419D4208BFB7
:1099C800964244F1FD0404F5407402D25B084FEA64
:1099D8003202B61A65EB03055B084FEA32024FF410
:1099E80080104FF4002CB6EB020E75EB030E22BF6D
:1099F800B61A754640EA0C005B084FEA3202B6EB2D
:109A0800020E75EB030E22BFB61A754640EA5C00DB
:109A18005B084FEA3202B6EB020E75EB030E22BF6B
:109A2800B61A754640EA9C005B084FEA3202B6EB6C
:109A3800020E75EB030E22BFB61A754640EADC002B
:109A480055EA060E18D04FEA051545EA16754FEA8D
:109A580006164FEAC30343EA52734FEAC2025FEAAB
:109A68001C1CC0D111F4801F0BD141EA00014FF03A
:109A780000004FF0004CB6E711F4801F04BF01430B
:109A88000020B4F1FD0C88BFBCF5E06F3FF6AFAE27
:109A9800B5EB030C04BFB6EB020C5FEA500C50F1B7
:109AA800000041EB045170BD0EF0004E4EEA11313A
:109AB80014EB5C04C2BFD4EB0C0541EA045170BD41
:109AC80041F480114FF0000E013C90E645EA060E85
:109AD8008DE60CEA135594EA0C0F08BF95EA0C0FB3
:109AE8003FF43BAF94EA0C0F0AD150EA01347FF4FB
:109AF80034AF95EA0C0F7FF425AF104619462CE7D2
:109B080095EA0C0F06D152EA03353FF4FDAE104634
:109B1800194622E750EA410618BF52EA43067FF485
:109B2800C5AE50EA41047FF40DAF52EA43057FF415
:109B3800EBAE12E74FEA4102B2F1E04324BFB3F5BE
:109B4800001CDCF1FE5C0DD901F0004C4FEAC002AC
:109B58004CEA5070B2F1004F40EB830008BF20F090
:109B68000100704711F0804F21D113F13872BCBF4A
:109B780001F00040704741F480114FEA5252C2F19F
:109B88001802C2F1200C10FA0CF320FA02F018BFE8
:109B980040F001004FEAC1234FEAD32303FA0CFC3B
:109BA80040EA0C0023FA02F34FEA4303CCE77FEACA
:109BB800625307D150EA01331EBF4FF0FE4040F414
:109BC8004000704701F0004040F0FE4040F40000C3
:109BD800704700BF034B00221A60DA601A615A61AD
:109BE800704700BFF89B01205FF800F089CA07089A
:0400000520019053F3
:00000001FF
