:020000042001D9
:109000005544454C00010100020000000000000032
:1090100053900120099101204F9001204B90012095
:109020008D92012000000000000000000000000000
:109030000000000000000000000000000000000030
:049040002593012053
:1090480070477047704770477047104B104A2DE9BA
:10905800F041884607460021934202D003F8011FD9
:10906800FAE70C4B0C4CE41AA41000251E46A54246
:1090780005D056F8253003B198470135F7E7414642
:10908800384600F00BF8BDE8F08100BF3F9301209F
:10909800779301204090012044900120154A164BF7
:1090A8004FF4802110B5D16001391360116110337C
:1090B80000215161144603F50011002243F8102CD9
:1090C80043F80C2C43F8082C43F8042C103399422D
:1090D800F4D100F02DF90A23A06190FBF3F03C23B2
:1090E80093FBF0F0054B58434FF07C53E06123624B
:1090F80010BD00BF40930120000042C0008A6600F6
:10910800574BDFED582AD3ED081A93ED091A9FED56
:10911800563ADFED563A9FED564ADFED564A9FED37
:10912800565ADFED565A9FED566AF0B55D691F68CD
:10913800D3F810E0C90000EB010C2E46B6EE002A69
:10914800844500F1080400F0878006F57A4202EAB7
:109158000E0207EBC20292ED007AD2ED017A21EEFF
:10916800077A61EE277A27EE217A61EEA77AF7EE81
:10917800080AC3ED0B7A67EE077A83ED0A7A67EE81
:10918800877AF0EE636A62EE677AB0EE650AE7EE18
:10919800207A0EEA060207EBC202B0EE437AA7EE87
:1091A800A27A013EE7EE276AB0EE667AF0EE446AEC
:1091B800E7EE276AB0EE457AA7EEA47AA7EE270A6B
:1091C800B0EE407AB0EE460AA7EE270A14ED027A0E
:1091D800C6EE807AD3ED0C6AA6EEA77AB0EE650AE1
:1091E80004ED027AD3ED0B6A66EEA67A67EEA67AEC
:1091F80062EE677AE6EEA07AF0EE436AE7EEA26ADC
:10920800F0EE630AE6EEA70AF0EE606AF0EE440AB2
:10921800E6EEA70AF0EE456AE7EEA46AA6EEA70A0C
:10922800F0EE406AB0EE460AA6EEA70AD0ED016A53
:10923800C0EE807A77EEA67AD3ED0D6A67EEA67A4D
:10924800C0ED017AF7EE007A82ED007A37EE277AE0
:10925800204682ED017A73E7A5EBD1055D61F0BD8B
:10926800409301203684093D72146F3D0CBD7C3E4D
:10927800C847E2B6FF7EEB3C4D74DE3DAF96793DC4
:1092880075667C3E08B52DED028B08EE101A012894
:10929800BAEEE08A0AD005D3032835D11C4B83EDFA
:1092A800088A31E01A4B83ED098A2DE000F040F876
:1092B800F5EE007A0A23B4EEE78AB0FBF3F0144B1C
:1092C80080B2F1EE10FA986105D5124A92FBF0F0DF
:1092D8008000D86118E0F6EE007AB4EEE78AF1EE85
:1092E80010FA05D50B4A92FBF0F04000D8610BE06C
:1092F800F6EE087AB4EEE78AF1EE10FA4CBF054AAA
:10930800054A92FBF0F0D861BDEC028B08BD00BFA6
:109318004093012000F22B0000F91500034B0022B6
:109328001A60DA601A615A61704700BF40930120E1
:089338005FF800F089CA070884
:0400000520019053F3
:00000001FF
