:020000042001D9
:109000005544454C00010100020000000000000032
:109010004B90012041900120479001204390012076
:10902000459001200000000000000000000000004A
:109030000000000000000000000000000000000030
:1090400070477047704770477047104B104A2DE9C2
:10905000F041884607460021934202D003F8011FE1
:10906000FAE70C4B0C4CE41AA41000251E46A5424E
:1090700005D056F8253003B198470135F7E741464A
:109080003846FFF7E1FFBDE8F08100BF9F90012067
:0C9090009F9001204090012040900120A2
:040000052001904BFB
:00000001FF
