:020000042001D9
:109000005544454C00010100020000000000000032
:1090100053900120219101204F9001204B9001207D
:1090200095910120000000000000000000000000F9
:109030000000000000000000000000000000000030
:049040007992012000
:1090480070477047704770477047104B104A2DE9BA
:10905800F041884607460021934202D003F8011FD9
:10906800FAE70C4B0C4CE41AA41000251E46A54246
:1090780005D056F8253003B198470135F7E7414642
:10908800384600F00BF8BDE8F08100BF9F92012040
:10909800CB9201204090012044900120194A1A4B9C
:1090A8004FF4803110B591604FF6FF711360D160B5
:1090B800103300211161144603F58021002243F882
:1090C800102C43F80C2C43F8082C43F8042C1033CC
:1090D8009942F4D100F0D8F89FED0C7A84ED050A96
:1090E800C7EE007A4FF07C53E3619FED097A67EE93
:1090F800877A9FED087A67EE877AFCEEE77AC4ED07
:10910800067A10BDA0920120000042C00000704203
:1091180000803B47000000421B4BF0B59A69D3ED35
:10912800076A1E68DF6893ED086A4FEA410E1969FD
:10913800002402EB010C7445A1EB040221D0C4EB1E
:109148000C053D4006EB8505D5ED007A90ED007ADB
:1091580066EE277A83ED097A66EEA77A3A40C3ED80
:109168000A7A77EE277A06EB8202E0EC017AD3EDF1
:10917800097A93ED0A7A77EE877A0134C2ED007A9C
:10918800D9E71A61F0BD00BFA092012008B52DED06
:10919800028B08EE101A0128BAEEE08A11D005D326
:1091A800032858D12D4B83ED078A54E0B5EE408A49
:1091B800F1EE10FA294B06BF294A1A6283ED088A94
:1091C80049E000F065F807EE900AF8EE676AF5EEF8
:1091D800007AB4EEE78A214B9FED226AC3ED056A57
:1091E800F1EE10FADFED207A0CD586EE267A67EEDE
:1091F800277A9FED1E7A67EE877AFCEEE77AC3ED51
:10920800067A28E0B6EE007AB4EEC78AF1EE10FAD4
:109218000CD586EE267A67EE277AB3EE007A67EEEB
:10922800877AFCEEE77AC3ED067A14E0B6EE087AA0
:10923800B4EEC78A86EE267AF1EE10FA67EE277A40
:109248004CBFB2EE007AB1EE007A67EE877AFCEE98
:10925800E77AC3ED067ABDEC028B08BDA092012027
:10926800CDCCCC3D0000704200803B47000000425E
:10927800044B002200211A6059609A60DA601A6172
:10928800704700BFA09201205FF800F08DCA070860
:089298005FF800F089CA070825
:0400000520019053F3
:00000001FF
