:020000042001D9
:109000005544454C00010100020000000000000032
:1090100053900120219101204F9001204B9001207D
:1090200091910120000000000000000000000000FD
:109030000000000000000000000000000000000030
:049040007592012004
:1090480070477047704770477047104B104A2DE9BA
:10905800F041884607460021934202D003F8011FD9
:10906800FAE70C4B0C4CE41AA41000251E46A54246
:1090780005D056F8253003B198470135F7E7414642
:10908800384600F00BF8BDE8F08100BF9F92012040
:10909800C39201204090012044900120194A1A4BA4
:1090A8004FF4803110B591604FF6FF711360D160B5
:1090B800103300211161144603F58021002243F882
:1090C800102C43F80C2C43F8082C43F8042C1033CC
:1090D8009942F4D100F0D6F89FED0C7A84ED050A98
:1090E800C7EE007A4FF07C53E3619FED097A67EE93
:1090F800877A9FED087A67EE877AFCEEE77AC4ED07
:10910800067A10BDA0920120000042C00000704203
:1091180000803B47000000421A4B93ED076A9A69AA
:10912800D3ED085AF0B5B7EE007A4FEA410E196947
:109138001E68DF6837EE467A002402EB010C74459E
:10914800A1EB04021BD0C4EB0C053D4006EB8505E2
:10915800D5ED007AD0ED006A65EEA77A3A4067EE61
:10916800867A06EB8202B0EE675AA7EE265A0134D9
:1091780077EE857AA0EC015AC2ED007ADFE71A6132
:10918800F0BD00BFA092012008B52DED028B08EEBE
:10919800101A0128BAEEE08A11D005D3032858D155
:1091A8002D4B83ED078A54E0B5EE408AF1EE10FAB4
:1091B800294B06BF294A1A6283ED088A49E000F064
:1091C80065F807EE900AF8EE676AF5EE007AB4EEF5
:1091D800E78A214B9FED226AC3ED056AF1EE10FA8A
:1091E800DFED207A0CD586EE267A67EE277A9FED9A
:1091F8001E7A67EE877AFCEEE77AC3ED067A28E0F6
:10920800B6EE007AB4EEC78AF1EE10FA0CD586EE07
:10921800267A67EE277AB3EE007A67EE877AFCEE55
:10922800E77AC3ED067A14E0B6EE087AB4EEC78A98
:1092380086EE267AF1EE10FA67EE277A4CBFB2EE88
:10924800007AB1EE007A67EE877AFCEEE77AC3ED32
:10925800067ABDEC028B08BDA0920120CDCCCC3D96
:109268000000704200803B4700000042044B00228F
:1092780000211A6059609A60DA601A61704700BF6D
:10928800A09201205FF800F08DCA07085FF800F08F
:0492980089CA070870
:0400000520019053F3
:00000001FF
