:020000042001D9
:109000005544454C00010100020000000000000032
:1090100053900120099101204F9001204B90012095
:109020007591012000000000000000000000000019
:109030000000000000000000000000000000000030
:049040004192012038
:1090480070477047704770477047104B104A2DE9BA
:10905800F041884607460021934202D003F8011FD9
:10906800FAE70C4B0C4CE41AA41000251E46A54246
:1090780005D056F8253003B198470135F7E7414642
:10908800384600F00BF8BDE8F08100BF5F92012080
:10909800879201204090012044900120154A164BE8
:1090A8004FF4003110B5916001391360D16010336D
:1090B80000211161144603F50021002243F8102C09
:1090C80043F80C2C43F8082C43F8042C103399422D
:1090D800F4D100F0BDF80A23606190FBF3F03C2363
:1090E80093FBF0F0054B58434FF07C53A061E361CC
:1090F80010BD00BF60920120000042C000E02E00B9
:10910800194BF0B59A69D3ED076A1E68DF6893EDCD
:10911800086A4FEA410E1969002402EB010C7445F4
:10912800A1EB04021DD0C4EB0C053D4006EB850500
:10913800D5ED007A66EE277A3A4067EEA67A06EB16
:109148008202C3ED097A90ED007A77EE877A0134CE
:10915800E0EC017A93ED097A77EE277AC2ED007A8E
:10916800DDE71A61F0BD00BF6092012008B52DED62
:10917800028B08EE101A0128BAEEE08A11D005D346
:1091880003284FD1294B83ED078A4BE0B5EE408A7F
:10919800F1EE10FA254B06BF254A1A6283ED088ABC
:1091A80040E000F055F8F5EE007A204AB4EEE78A80
:1091B8000A23F1EE10FAB0FBF3F080B250614FF0E1
:1091C8003C01B6EE007A10D590FBF1F007EE900A5C
:1091D800F8EEE77ADFED176A67EE877A86EEA77A08
:1091E800BCEEC77A82ED067A1CE0B4EEC78AF1EECF
:1091F80010FA07D590FBF1F04BF6803393FBF0F0B3
:1092080090610FE0F6EE087AB4EEE78AF1EE10FA14
:1092180090FBF1F04BF680334CBF4000800093FB8D
:10922800F0F09061BDEC028B08BD00BF6092012098
:10923800CDCCCC3D00803B47044B002200211A6076
:1092480059609A60DA601A61704700BF6092012025
:089258005FF800F089CA070865
:0400000520019053F3
:00000001FF
