:020000042001D9
:109000005544454C00010100020000000000000032
:1090100053900120819101204F9001204B9001201D
:10902000519301200000000000000000000000003B
:109030000000000000000000000000000000000030
:0490400081930120F7
:1090480070477047704770477047104B104A2DE9BA
:10905800F041884607460021934202D003F8011FD9
:10906800FAE70C4B0C4CE41AA41000251E46A54246
:1090780005D056F8253003B198470135F7E7414642
:10908800384600F051F8BDE8F08100BF9F930120F9
:10909800CB930120409001204490012010B5F5EEBB
:1090A800007AB4EEE70AF1EE10FA2DED028B1C4CB3
:1090B8009FED1C8A0AD500F06BF988EE000AF1EEE4
:1090C800007A20EE270A84ED000A25E0F6EE008AF1
:1090D800B4EEE80AF1EE10FA08D500F059F988EE76
:1090E800000A30EE000A84ED000A15E0F6EE087A70
:1090F800B4EEE70AF1EE10FA06D500F049F988EE69
:10910800000A84ED000A07E000F042F988EE000A40
:1091180020EE280A84ED000ABDEC028B10BD00BFCA
:10912800A093012000C82F4A114B124959604FF4EF
:109138008022DA60013A1A6100225A61002001F1A6
:10914800100201F1101142F8100C42F80C0C42F810
:10915800080C42F8040C10329142F4D1B6EE000A21
:1091680083ED060A83ED070A83ED080AFFF796BF29
:10917800A0930120000042C02DE9F041694C2DED7B
:10918800028BCF0094ED080AD4ED068A94ED078A85
:10919800054600EB0708FFF781FF66696168D4F8A8
:1091A80010E09FED613ADFED613A9FED614ADFED36
:1091B800614A9FED615ADFED615A9FED616ADFED0B
:1091C800616A28463246F6EE002A804500F1080515
:1091D800A2F1020C00F09F8094ED007AFCEEC77AB1
:1091E800F0EE441A17EE903A981800EA0E0001EBD8
:1091F8008000D0ED007A02EE103A501C0344B8EE1D
:10920800422A03EA0E0301EB830337EE427A93ED19
:10921800002A32EE672A0EEA0203E7EE027A01EB31
:109228008303013A02EA0E0228EEA77A01EB8202D2
:1092380084ED097A84ED0A7A15ED027A37EE877A99
:10924800B7EE082A27EE087AB0EE461A83ED007AC0
:1092580015ED017A77EE877A284667EE887AC2EDAF
:10926800007A94ED097A67EE077A624667EE877AA4
:1092780062EEE77AE7EE027AB0EE637AA7EE837AD7
:10928800E7EE271AB0EE617AF0EE641AE7EE271AD5
:10929800B0EE657AA7EE857AA7EE271AB0EE417A86
:1092A800B0EE661AA7EE271A55ED027A81EE817A9A
:1092B800F0EE461A77EE877A45ED027A94ED0A7A4F
:1092C80067EE077A67EE877A62EEE77AE7EE027A68
:1092D800B0EE637AA7EE837AB0EE442AA7EE272A87
:1092E800B0EE427AB0EE642AA7EE272AB0EE657A8D
:1092F800A7EE857AE7EE271AB0EE617AF0EE661AE5
:10930800E7EE271A55ED017A82EE217A77EE877A11
:1093180045ED017A59E7BDEC028BA6EB970666612D
:10932800BDE8F081A09301203684093D72146F3D99
:109338000CBD7C3EC847E2B6FF7EEB3C4D74DE3D7B
:10934800AF96793D75667C3E07EE901A0128FAEED5
:10935800E07A07D002D3032808D07047054BC3ED45
:10936800077A7047034BC3ED087A7047014BC3ED8A
:10937800067A7047A0930120044B002200215A600E
:109388009960DA601A615A61704700BFA0930120A2
:089398005FF800F08DCA070820
:0400000520019053F3
:00000001FF
