:020000042001D9
:109000005544454C00010100020000000000000032
:1090100053900120099101204F9001204B90012095
:10902000019201200000000000000000000000008C
:109030000000000000000000000000000000000030
:0490400099920120E0
:1090480070477047704770477047104B104A2DE9BA
:10905800F041884607460021934202D003F8011FD9
:10906800FAE70C4B0C4CE41AA41000251E46A54246
:1090780005D056F8253003B198470135F7E7414642
:10908800384600F00BF8BDE8F08100BFB792012028
:10909800DF92012040900120449001201549164A92
:1090A8004FF4802310B58B60013BCB6000230A602E
:1090B8000B610C4602F11003002102F1101243F873
:1090C800101C43F80C1C43F8081C43F8041C10330C
:1090D8009A42F4D100F0E8F80A23606190FBF3F0BB
:1090E8003C2393FBF0F0054B58434FF07C53A061B1
:1090F800E36110BDB8920120000042C0008A6600FA
:10910800344BDFED352A9A6993ED072AD3ED081A17
:109118009FED323ADFED323A9FED324ADFED324AC7
:109128009FED325ADFED325A9FED326AF0B54FEAC1
:10913800410E19691E68DF68002402EB010C7445B2
:10914800A1EB040243D0C4EB0C053D4006EB8505BA
:10915800D5ED006A61EEA66AB6EE007A66EE826A1E
:10916800B0EE651A66EEA67AC3ED096A67EEA67ACE
:109178003A4067EE677AB7EE087AE6EE877A06EB4A
:1091880082020134B0EE437AA7EEA27AF0EE636A67
:10919800E7EE276AB0EE667AF0EE446AE7EE276AF1
:1091A800B0EE457AA7EEA47AA7EE271AB0EE417A78
:1091B800B0EE461AA7EE271A90ED007AC6EE817A2D
:1091C80077EE877AE0EC017AC2ED007AB7E71A61A8
:1091D800F0BD00BFB89201203684093D72146F3D7E
:1091E8000CBD7C3EC847E2B6FF7EEB3C4D74DE3DCD
:1091F800AF96793D75667C3E08B52DED028B08EE7D
:10920800101A0128BAEEE08A0AD005D3032835D10E
:109218001C4B83ED078A31E01A4B83ED088A2DE059
:1092280000F042F8F5EE007A0A23B4EEE78AB0FBC4
:10923800F3F0144B80B2F1EE10FA586105D5124ADA
:1092480092FBF0F08000986118E0F6EE007AB4EE38
:10925800E78AF1EE10FA05D50B4A92FBF0F04000D0
:1092680098610BE0F6EE087AB4EEE78AF1EE10FAB0
:109278004CBF054A054A92FBF0F09861BDEC028BA1
:1092880008BD00BFB892012000F22B0000F91500BC
:10929800044B002200211A6059609A60DA601A6152
:1092A800704700BFB89201205FF800F089CA07082C
:0400000520019053F3
:00000001FF
