:020000042001D9
:109000005544454C00010100020000000000000032
:1090100053900120099101204F9001204B90012095
:109020008591012000000000000000000000000009
:109030000000000000000000000000000000000030
:049040002D9201204C
:1090480070477047704770477047104B104A2DE9BA
:10905800F041884607460021934202D003F8011FD9
:10906800FAE70C4B0C4CE41AA41000251E46A54246
:1090780005D056F8253003B198470135F7E7414642
:10908800384600F00BF8BDE8F08100BF4F92012090
:109098007792012040900120449001201549164AFA
:1090A8004FF4802310B58B60013BCB6000230A602E
:1090B8000B610C4602F11003002102F1101243F873
:1090C800101C43F80C1C43F8081C43F8041C10330C
:1090D8009A42F4D100F0B2F80A23606190FBF3F0F1
:1090E8003C2393FBF0F0054B58434FF07C53A061B1
:1090F800E36110BD50920120000042C0008A660062
:109108001D4BF0B59A69D3ED075A1E68DF6893EDD9
:10911800085A4FEA410E1969002402EB010CB6EE19
:10912800006AF7EE086A7445A1EB040221D0C4EB8B
:109138000C053D4006EB850595ED007A25EE077A8E
:109148003A4027EE257A06EB820267EE077A83ED2E
:10915800097A67EE877A013466EE677AE7EE267A4F
:1091680090ED007A77EE877AE0EC017AC2ED007A2A
:10917800D9E71A61F0BD00BF5092012008B52DED66
:10918800028B08EE101A0128BAEEE08A11D005D336
:1091980003283CD11F4B83ED078A38E0B5EE408A9F
:1091A800F1EE10FA1B4B06BF1B4A1A6283ED088AC0
:1091B8002DE000F043F8F5EE007A0A23B4EEE78AD2
:1091C800B0FBF3F0134B80B2F1EE10FA586105D5FD
:1091D800124A92FBF0F08000986118E0F6EE007AEF
:1091E800B4EEE78AF1EE10FA05D50C4A92FBF0F0DE
:1091F800400098610BE0F6EE087AB4EEE78AF1EEEB
:1092080010FA4CBF054A064A92FBF0F09861BDEC93
:10921800028B08BD50920120CDCCCC3D00F22B0032
:1092280000F91500044B002200211A6059609A6069
:10923800DA601A61704700BF509201205FF800F0B1
:0492480089CA0708C0
:0400000520019053F3
:00000001FF
