:020000042001D9
:109000005544454C00010100020000000000000032
:1090100053900120299101204F9001204B90012075
:109020001592012000000000000000000000000078
:109030000000000000000000000000000000000030
:04904000F592012084
:1090480070477047704770477047104B104A2DE9BA
:10905800F041884607460021934202D003F8011FD9
:10906800FAE70C4B0C4CE41AA41000251E46A54246
:1090780005D056F8253003B198470135F7E7414642
:10908800384600F00BF8BDE8F08100BF1F930120BF
:1090980057930120409001204490012010B51B4CAB
:1090A8001B4B23604FF48022E260013A22611033A7
:1090B8000022626103F50011002243F8102C43F8E6
:1090C8000C2C43F8082C43F8042C10339942F4D1A3
:1090D8004FF00043A36100F017F90A23206290FBC8
:1090E800F3F03C2393FBF0F00A4B9FED0B7A5843C7
:1090F8004FF07C53A362094B6062D3ED007A67EEB0
:10910800877AFEEEC07AC4ED077A10BD209301205D
:10911800000042C0008A66003EC3AE3718930120A3
:10912800384B9FED394AD3ED0A5A93ED0B5AD3F8D1
:109138001CC02DE9F0435D69D3F818E01E681F696B
:10914800C90000EB0108F1462A46B7EE006AF1EEC5
:10915800004A804507EE109A00F10804E14448D01F
:10916800B8EEC77A27EE047A17EE100A20F000400E
:1091780007EE900A02F5D260384006EBC00077EEA1
:10918800C67AD0ED016A02F5966067EE877A3840B4
:1091980006EBC00027EEA47AD0ED007A65EE266AC9
:1091A80065EE277A66EE876A67EE877A25EEA67AF5
:1091B80067EEA57A83ED0D7AC3ED0C7A14ED027A89
:1091C80077EE877A14ED017A44ED027AD3ED0D6AD1
:1091D80007EA020037EE267A06EBC00004ED017AB2
:1091E800C0ED007A77EE867A013AC0ED017A204622
:1091F800AFE7C9086D1A0CFB01E15D619961BDE833
:10920800F08300BF209301200000003008B52DED49
:10921800028B08EE101A0128BAEEE08A2CD005D38A
:10922800032857D12D4B83ED0A8A53E0B5EE007A17
:109238002A4BB4EEC78AF1EE10FA83ED0B8A284B5D
:1092480003D54FF078525A6044E0F6EE007AB4EE57
:10925800E78AF1EE10FA02D583ED017A3AE0B6EE2C
:10926800087AB4EEC78AF1EE10FA56BF4FF07E5274
:10927800C3ED017A5A602DE000F046F8F5EE007A69
:109288000A23B4EEE78AB0FBF3F0144B80B2F1EE98
:1092980010FA186205D5134A92FBF0F08000586264
:1092A80018E0F6EE007AB4EEE78AF1EE10FA05D58A
:1092B8000C4A92FBF0F0400058620BE0F6EE087A98
:1092C800B4EEE78AF1EE10FA4CBF064A064A92FB62
:1092D800F0F05862BDEC028B08BD00BF209301205E
:1092E8001893012000F22B0000F91500054B00220D
:1092F8004FF000411A60DA601A615A619961DA61C7
:10930800704700BF209301205FF800F089CA070862
:089318000000A0400000003F2E
:0400000520019053F3
:00000001FF
