:020000042001D9
:109000005544454C00010100020000000000000032
:109010004F900120099101204B90012047900120A1
:109020000592012000000000000000000000000088
:109030000000000000000000000000000000000030
:049040005592012024
:1090440070477047704770477047104B104A2DE9BE
:10905400F041884607460021934202D003F8011FDD
:10906400FAE70C4B0C4CE41AA41000251E46A5424A
:1090740005D056F8253003B198470135F7E7414646
:10908400384600F00BF8BDE8F08100BF7F92012064
:10909400AF9201204090012044900120154B1649C5
:1090A40019604FF480229A60013ADA6000221A6152
:1090B400002001F1100201F1101142F8100C42F8E5
:1090C4000C0C42F8080C42F8040C10329142F4D112
:1090D4004FF000425A614FF07C52DA61074A9FED2B
:1090E400087AD2ED007A67EE877AFEEEC07AC3ED95
:1090F400067A704780920120000042C078920120D5
:109104003EC3AE373A4BDFED3B3A93ED076A9FED32
:109114003A5ADFED3A5A2DE9F047D3F814801D6925
:109124001F68D3F80CE09E69C90000EB010AC4462D
:109134002A46B7EE004AF1EE004A824507EE90CA8D
:1091440000F10804A2F10209B44447D0F8EEE77A2A
:1091540027EEA37A17EE100A20F0004007EE900ADB
:1091640077EEC47A67EE877AB0EE657A67EEA47A12
:10917400A7EE857AFCEEC77A93ED087A17EE900A8B
:10918400104400EA0E0007EB8000D0ED007A67EE91
:10919400877A0EEA020067EE867A013AC3ED0A7A0C
:1091A400C3ED097A14ED027A77EE877A14ED017A29
:1091B40044ED027AD3ED0A6A37EE267A07EB800093
:1091C40002EA0E0204ED017A07EB8202C0ED007A96
:1091D40054F8040C10604A462046AEE7C90806FB62
:1091E4000186A5EB41015E611961BDE8F08700BF0E
:1091F4008092012000000030000070430000904382
:1092040007EE901A0128FAEEE07A07D002D3032879
:1092140013D070470B4BC3ED087A704777EEA77AEB
:10922400094B9FED0A7AC3ED007A67EE877A054B06
:10923400FEEEC07AC3ED067A7047024BC3ED077A9F
:10924400704700BF80920120789201203EC3AE3760
:10925400064B0021002259604FF000411A609A60C9
:10926400DA601A6159619A61704700BF80920120E7
:089278000000003F00000000AF
:040000052001904FF7
:00000001FF
