:020000042001D9
:10780000554D4F440001010002000000000000003F
:107810004B7801209F780120477801204378012090
:10782000B979012000000000000000000000000005
:107830000000000000000000000000000000000048
:1078400070477047704770477047104B104A2DE9DA
:10785000F041884607460021934202D003F8011FF9
:10786000FAE70C4B0C4CE41AA41000251E46A54266
:1078700005D056F8253003B198470135F7E7414662
:10788000384600F00BF8BDE8F08100BFC784012046
:10789000C7840120407801204078012070472DE9FD
:1078A000F0432DED0C8B83B03F4B169E1F68D3ED3C
:1078B000019A93ED02AA9FED3D9ADFED3DCA9FED3F
:1078C0003DDA0C4676000025F2EE04AAF7EE008AB7
:1078D000B6EE00BAF7EE08BABFEE00CAB5425DD008
:1078E000032F59D8DFE807F0023F3F4490ED007ABC
:1078F000B4EE4C7AF1EE10FA04F1040900F1040838
:107900002CD0F8EEE97A77EEE87AF4EEC97AF1EE67
:1079100010FAB8BFF0EE497A37EEAC8A28EE0D8A3D
:10792000BCEEC88A67EE087A17EE900A00F0F4F908
:1079300041EC100B00F02EFDC8EE887A53EC102BB2
:1079400017EE900ACDE9002300F0E6F9DDE9002307
:1079500000F036FA00F0CEFC07EE100A84ED007A53
:1079600040464C4618E0036823600430043413E0BA
:10797000F0EE687AEAEE2A7A0434043010ED017AE7
:1079800067EE877A27EEA77A27EE277A2BEE477ADB
:10799000A7EEAB7A04ED017A01359FE703B0BDECA9
:1079A0000C8BBDE8F08300BFB88401200000FCC24E
:1079B000A9E2FD420000004B07EE901AFAEEE07AD1
:1079C00010B1012822D07047B5EE007A1F4BF4EEBB
:1079D000C77AF1EE10FAC3ED027A02D508225A6096
:1079E0007047B6EE007AF4EEC77AF1EE10FA02D5DF
:1079F00010225A607047B6EE087AF4EEC77AF1EEBC
:107A000010FA4CBF202240225A607047B5EE007A2F
:107A1000F4EEC77AF1EE10FA0C4B02D500221A6090
:107A20007047B6EE007AF4EEC77AF1EE10FA01D59F
:107A300018607047B6EE087AF4EEC77AF1EE10FAE5
:107A40004CBF022203221A60704700BFB884012095
:107A500081F0004102E000BF83F0004330B54FEAFF
:107A600041044FEA430594EA050F08BF90EA020F6C
:107A70001FBF54EA000C55EA020C7FEA645C7FEAFF
:107A8000655C00F0E2804FEA5454D4EB5555B8BF22
:107A90006D420CDD2C4480EA020281EA030382EA93
:107AA000000083EA010180EA020281EA0303362D25
:107AB00088BF30BD11F0004F4FEA01314FF4801CF8
:107AC0004CEA113102D0404261EB410113F0004F0A
:107AD0004FEA03334CEA133302D0524263EB4303C1
:107AE00094EA050F00F0A780A4F10104D5F1200E5F
:107AF0000DDB02FA0EFC22FA05F2801841F10001BA
:107B000003FA0EF2801843FA05F359410EE0A5F18D
:107B100020050EF1200E012A03FA0EFC28BF4CF0BE
:107B2000020C43FA05F3C01851EBE37101F0004574
:107B300007D54FF0000EDCF1000C7EEB00006EEB81
:107B40000101B1F5801F1BD3B1F5001F0CD349080B
:107B50005FEA30004FEA3C0C04F101044FEA445262
:107B600012F5800F80F09A80BCF1004F08BF5FEAE9
:107B7000500C50F1000041EB045141EA050130BDC9
:107B80005FEA4C0C404141EB010111F4801FA4F16C
:107B90000104E9D191F0000F04BF01460020B1FAC1
:107BA00081F308BF2033A3F10B03B3F120020CDAF9
:107BB0000C3208DD02F1140CC2F10C0201FA0CF0D7
:107BC00021FA02F10CE002F11402D8BFC2F1200C3C
:107BD00001FA02F120FA0CFCDCBF41EA0C019040F2
:107BE000E41AA2BF01EB0451294330BD6FEA04043B
:107BF0001F3C1CDA0C340EDC04F11404C4F1200226
:107C000020FA04F001FA02F340EA030021FA04F337
:107C100045EA030130BDC4F10C04C4F1200220FA8E
:107C200002F001FA04F340EA0300294630BD21FACC
:107C300004F0294630BD94F0000F83F4801306BF92
:107C400081F480110134013D4EE77FEA645C18BF86
:107C50007FEA655C29D094EA050F08BF90EA020F1D
:107C600005D054EA000C04BF1946104630BD91EA15
:107C7000030F1EBF0021002030BD5FEA545C05D118
:107C80004000494128BF41F0004130BD14F5800457
:107C90003CBF01F5801130BD01F0004545F0FE41CB
:107CA00041F470014FF0000030BD7FEA645C1ABF00
:107CB000194610467FEA655C1CBF0B46024650EA37
:107CC000013406BF52EA033591EA030F41F4002163
:107CD00030BD00BF90F0000F04BF0021704730B5E9
:107CE0004FF4806404F132044FF000054FF00001BE
:107CF00050E700BF90F0000F04BF0021704730B57F
:107D00004FF4806404F1320410F0004548BF404253
:107D10004FF000013EE700BF42004FEAE2014FEAA8
:107D200031014FEA02701FBF12F07F4393F07F4F83
:107D300081F06051704792F0000F14BF93F07F4FB5
:107D4000704730B54FF4607401F0004521F00041F8
:107D500020E700BF50EA010208BF704730B54FF07E
:107D600000050AE050EA010208BF704730B511F083
:107D7000004502D5404261EB41014FF4806404F1BB
:107D800032045FEA915C3FF4DCAE4FF003025FEA3D
:107D9000DC0C18BF03325FEADC0C18BF033202EBC5
:107DA000DC02C2F1200300FA03FC20FA02F001FA1F
:107DB00003FE40EA0E0021FA02F11444C1E600BFBE
:107DC00070B54FF0FF0C4CF4E06C1CEA11541DBF71
:107DD0001CEA135594EA0C0F95EA0C0F00F0DEF83C
:107DE0002C4481EA030621EA4C5123EA4C5350EA21
:107DF000013518BF52EA033541F4801143F4801372
:107E000038D0A0FB02CE4FF00005E1FB02E506F002
:107E10000042E0FB03E54FF00006E1FB03569CF057
:107E2000000F18BF4EF0010EA4F1FF04B6F5007F5D
:107E300064F5407404D25FEA4E0E6D4146EB0606CF
:107E400042EAC62141EA55514FEAC52040EA5E5058
:107E50004FEACE2EB4F1FD0C88BFBCF5E06F1ED802
:107E6000BEF1004F08BF5FEA500E50F1000041EB39
:107E7000045170BD06F0004646EA010140EA0200E6
:107E800081EA0301B4EB5C04C2BFD4EB0C0541EA08
:107E9000045170BD41F480114FF0000E013C00F31D
:107EA000AB8014F1360FDEBF002001F0004170BD41
:107EB000C4F10004203C35DA0C341BDC04F114045A
:107EC000C4F1200500FA05F320FA04F001FA05F2E6
:107ED00040EA020001F0004221F0004110EBD370B3
:107EE00021FA04F642EB06015EEA430E08BF20EADF
:107EF000D37070BDC4F10C04C4F1200500FA04F382
:107F000020FA05F001FA04F240EA020001F0004113
:107F100010EBD37041F100015EEA430E08BF20EA86
:107F2000D37070BDC4F1200500FA05F24EEA020ECE
:107F300020FA04F301FA05F243EA020321FA04F0FD
:107F400001F0004121FA04F220EA020000EBD370B4
:107F50005EEA430E08BF20EAD37070BD94F0000FB4
:107F60000FD101F00046400041EB010111F4801FE8
:107F700008BF013CF7D041EA060195F0000F18BF99
:107F8000704703F00046520043EB030313F4801FD5
:107F900008BF013DF7D043EA0603704794EA0C0F8F
:107FA0000CEA135518BF95EA0C0F0CD050EA4106A5
:107FB00018BF52EA4306D1D181EA030101F0004122
:107FC0004FF0000070BD50EA410606BF104619464A
:107FD00052EA430619D094EA0C0F02D150EA013656
:107FE00013D195EA0C0F05D152EA03361CBF104697
:107FF00019460AD181EA030101F0004141F0FE4136
:1080000041F470014FF0000070BD41F0FE4141F4B9
:10801000780170BD70B54FF0FF0C4CF4E06C1CEAB9
:1080200011541DBF1CEA135594EA0C0F95EA0C0F6E
:1080300000F0A7F8A4EB050481EA030E52EA033529
:108040004FEA013100F088804FEA03334FF080554A
:1080500045EA131343EA12634FEA022245EA111577
:1080600045EA10654FEA00260EF000419D4208BF28
:10807000964244F1FD0404F5407402D25B084FEAD5
:108080003202B61A65EB03055B084FEA32024FF481
:1080900080104FF4002CB6EB020E75EB030E22BFDE
:1080A000B61A754640EA0C005B084FEA3202B6EB9E
:1080B000020E75EB030E22BFB61A754640EA5C004D
:1080C0005B084FEA3202B6EB020E75EB030E22BFDD
:1080D000B61A754640EA9C005B084FEA3202B6EBDE
:1080E000020E75EB030E22BFB61A754640EADC009D
:1080F00055EA060E18D04FEA051545EA16754FEAFF
:1081000006164FEAC30343EA52734FEAC2025FEA1C
:108110001C1CC0D111F4801F0BD141EA00014FF0AB
:1081200000004FF0004CB6E711F4801F04BF01437C
:108130000020B4F1FD0C88BFBCF5E06F3FF6AFAE98
:10814000B5EB030C04BFB6EB020C5FEA500C50F128
:10815000000041EB045170BD0EF0004E4EEA1131AB
:1081600014EB5C04C2BFD4EB0C0541EA045170BDB2
:1081700041F480114FF0000E013C90E645EA060EF6
:108180008DE60CEA135594EA0C0F08BF95EA0C0F24
:108190003FF43BAF94EA0C0F0AD150EA01347FF46C
:1081A00034AF95EA0C0F7FF425AF104619462CE743
:1081B00095EA0C0F06D152EA03353FF4FDAE1046A6
:1081C000194622E750EA410618BF52EA43067FF4F7
:1081D000C5AE50EA41047FF40DAF52EA43057FF487
:1081E000EBAE12E74FF0FF3C06E000BF4FF0010C92
:1081F00002E000BF4FF0010C4DF804CD4FEA410CF6
:108200007FEA6C5C4FEA430C18BF7FEA6C5C1BD0C2
:1082100001B050EA410C0CBF52EA430C91EA030F43
:1082200002BF90EA020F0020704710F1000F91EAA0
:10823000030F58BF994208BF90422CBFD8176FEA6E
:10824000E37040F0010070474FEA410C7FEA6C5C3C
:1082500002D150EA013C07D14FEA430C7FEA6C5C43
:10826000D6D152EA033CD3D05DF8040B704700BF6F
:108270008446104662468C461946634600E000BFBD
:1082800001B5FFF7B7FF002848BF10F1000F01BD8F
:108290004DF808EDFFF7F4FF0CBF012000205DF85A
:1082A00008FB00BF4DF808EDFFF7EAFF34BF0120DF
:1082B00000205DF808FB00BF4DF808EDFFF7E0FF78
:1082C00094BF012000205DF808FB00BF4DF808EDC9
:1082D000FFF7CEFF94BF012000205DF808FB00BF30
:1082E0004DF808EDFFF7C4FF34BF012000205DF812
:1082F00008FB00BF4FEA4102B2F1E04324BFB3F5EF
:10830000001CDCF1FE5C0DD901F0004C4FEAC0020C
:108310004CEA5070B2F1004F40EB830008BF20F0F0
:108320000100704711F0804F21D113F13872BCBFAA
:1083300001F00040704741F480114FEA5252C2F1FF
:108340001802C2F1200C10FA0CF320FA02F018BF48
:1083500040F001004FEAC1234FEAD32303FA0CFC9B
:1083600040EA0C0023FA02F34FEA4303CCE77FEA2A
:10837000625307D150EA01331EBF4FF0FE4040F474
:108380004000704701F0004040F0FE4040F4000023
:10839000704700BF51EC100BC1F30A532DE9F041B7
:1083A000A3F2FF35132D0C460F4610EE106A22DCA7
:1083B000002D52DB3D4B43FA05F801EA0803034365
:1083C0001ED038A3D3E90023FFF748FB0022002387
:1083D000FFF786FF48B1002C04DD4FF4801343FA09
:1083E00005F52F4427EA080400262346324643ECCD
:1083F000102BBDE8F081332D06DDB5F5806F3ED042
:1084000041EC100BBDE8F081A3F213434FF0FF38AD
:1084100028FA03F810EA080FF2D022A3D3E90023C8
:10842000FFF71CFB00220023FFF75AFF0028DCD0D7
:10843000002C09DD142D31D00123C5F1340503FAD8
:1084400005F5AE1928BFFF183C4626EA0806234664
:10845000324643EC102BBDE8F08112A3D3E9002390
:10846000FFF7FCFA00220023FFF73AFF0028BCD0F8
:10847000002C0FDB26430BD000260D4CB5E710EE89
:10848000102A0B46FFF7EAFA41EC100BBDE8F08129
:108490003446AAE700264FF00044A6E70137D3E7A9
:1084A000AFF300809C7500883CE4377EFFFF0F002F
:0484B0000000F03F99
:1084B80001000000100000000000003F0000000064
:040000052001784B13
:00000001FF
