:020000042001D9
:10780000554D4F440001010002000000000000003F
:107810004F780120717901204B78012047780120B1
:10782000197A0120000000000000000000000000A4
:107830000000000000000000000000000000000048
:04784000197B01208F
:1078440070477047704770477047104B104A2DE9D6
:10785400F041884607460021934202D003F8011FF5
:10786400FAE70C4B0C4CE41AA41000251E46A54262
:1078740005D056F8253003B198470135F7E741465E
:10788400384600F00BF8BDE8F08100BF677B0120AB
:10789400AF7B0120407801204478012030B52B4C87
:1078A4009FED2B7AD4ED007A2A492B4B27EE877A69
:1078B400B7EE005AFCEEC77A002217EE900A06EEE5
:1078C400900AF8EE666A01EB8005D5ED007A9A61BC
:1078D40037EE667AD5ED016A5A6176EEE76A03F10E
:1078E4001C05E7EE267A5A631A63D4ED016A66EE44
:1078F400A75AB0EE677AA5EEA77A1C4637EE267A29
:1079040085EE076AB8EE005A26EE867A83ED027A8F
:1079140083ED007A27EE057A83ED017AB0EE667A7C
:1079240095EEA77AD5EEA77A27EE067A77EEA67AB1
:1079340037EE077A67EE867A83ED037AC3ED047A2D
:107944000FCC0FC523682B6030BD00BF587B0120CE
:10795400BC9C024404B50708687B0120B5EEC00A4C
:10796400F1EE10FA48BFB1EE400A704730B5039DFE
:10797400274B0022AA4200F1080001F1080146D079
:1079840050ED026A93ED007AD3ED057A93ED015A36
:1079940010ED016AD3ED025AE6EE877A013293EDD7
:1079A400067AC3ED0E7AA6EE857A93ED035AA7EE16
:1079B400C57A93ED085A83ED057A93ED047A27EEA0
:1079C400677AA6EEA57AD3ED076A83ED067A93ED7E
:1079D4000C7AD3ED095AA6EE267AD3ED0D6A83ED1F
:1079E4000F7AE6EE056A93ED0A5AE7EE456AC3EDAF
:1079F4000C6AD3ED0B6A66EEC76AE6EE256AC3ED40
:107A04000D6A41ED027ADC6B41F8044CB2E730BDFB
:107A1400687B012030B507EE901A00286FD1B7EECD
:107A2400007AF8EEE77ADFED366A364B364AB0EE86
:107A3400476AA7EEE66A1C4603F11C05DFED336ACC
:107A4400B5EEC06AF1EE10FAF0EE467A48BFF1EEF8
:107A5400467A37EEE66AB5EEC06AF1EE10FAB8BFC0
:107A6400F0EE667A77EEC76A92ED026AF5EE406A46
:107A7400F1EE10FAF7EE006AA8BFF0EE667AC7EEF0
:107A8400276ADFED237A66EEA76AD3ED107A67EEF4
:107A9400867A93ED116AE6EE867AD2ED016AC3ED39
:107AA400107A66EEA75AB0EE675AA5EEA75AC2ED51
:107AB400007A35EE265A87EE056AB8EE005A26EEAD
:107AC400867A83ED027A83ED007A27EE057A83EDD8
:107AD400017AB0EE667A95EEA77AD5EEA77A27EE0C
:107AE400067A77EEA67A37EE077A67EE867A83ED22
:107AF400037AC3ED047A0FCC0FC523682B6030BD25
:107B040000000030687B0120587B01206F12833A0B
:107B14008FC2F5390C4B00221A605A609A60DA6001
:107B24001A615A619A61DA611A625A629A62DA6275
:107B34001A635A63054A92ED027AF7EE007A77EEF9
:107B4400C77AC3ED117A7047687B0120587B012006
:107B580048E1FA3E8CB9B33FCDCC4C3D0000000063
:040000052001784F0F
:00000001FF
