:020000042001D9
:10780000554D4F440001010002000000000000003F
:107810004B7801209F780120477801204378012090
:10782000F1780120000000000000000000000000CE
:107830000000000000000000000000000000000048
:1078400070477047704770477047104B104A2DE9DA
:10785000F041884607460021934202D003F8011FF9
:10786000FAE70C4B0C4CE41AA41000251E46A54266
:1078700005D056F8253003B198470135F7E7414662
:10788000384600F00BF8BDE8F08100BFF778012022
:10789000077901204078012040780120704730B5F9
:1078A000039D124B0022AA4200F1080001F10801D9
:1078B0001AD050ED027A93ED027AC3ED007A77EE9A
:1078C000C77A50F8044C5C6041ED027A93ED017A7E
:1078D000D3ED037A77EE677A013241ED017A1C68C5
:1078E0009C6083ED037ADEE730BD00BFF8780120AD
:0478F000704700BF1E
:040000052001784B13
:00000001FF
