:020000042001D9
:10780000554D4F440001010002000000000000003F
:107810004F780120717901204B78012047780120B1
:10782000197A0120000000000000000000000000A4
:107830000000000000000000000000000000000048
:04784000497B01205F
:1078440070477047704770477047104B104A2DE9D6
:10785400F041884607460021934202D003F8011FF5
:10786400FAE70C4B0C4CE41AA41000251E46A54262
:1078740005D056F8253003B198470135F7E741465E
:10788400384600F00BF8BDE8F08100BF777B01209B
:10789400B77B0120407801204478012030B52B4C7F
:1078A4009FED2B7AD4ED007A2A492B4B27EE877A69
:1078B400B7EE005AFCEEC77A002217EE900A06EEE5
:1078C400900AF8EE666A01EB8005D5ED007A9A61BC
:1078D40037EE667AD5ED016A5A6176EEE76A03F10E
:1078E4001C05E7EE267A5A631A63D4ED016A66EE44
:1078F400A75AB0EE677AA5EEA77A1C4637EE267A29
:1079040085EE076AB8EE005A26EE867A83ED027A8F
:1079140083ED007A27EE057A83ED017AB0EE667A7C
:1079240095EEA77AD5EEA77A27EE067A77EEA67AB1
:1079340037EE077A67EE867A83ED037AC3ED047A2D
:107944000FCC0FC523682B6030BD00BF707B0120B6
:10795400BC9C024404B50708787B0120B5EEC00A3C
:10796400F1EE10FA48BFB1EE400A704730B5039DFE
:10797400274B0022AA4200F1080001F1080146D079
:1079840050ED026A93ED007AD3ED057A93ED015A36
:1079940010ED016AD3ED025AE6EE877A013293EDD7
:1079A400067AC3ED0E7AA6EE857A93ED035AA7EE16
:1079B400C57A93ED085A83ED057A93ED047A27EEA0
:1079C400677AA6EEA57AD3ED076A83ED067A93ED7E
:1079D4000C7AD3ED095AA6EE267AD3ED0D6A83ED1F
:1079E4000F7AE6EE056A93ED0A5AE7EE456AC3EDAF
:1079F4000C6AD3ED0B6A66EEC76AE6EE256AC3ED40
:107A04000D6A41ED027ADC6B41F8044CB2E730BDFB
:107A1400787B012030B507EE901A002840F0828070
:107A2400F7EE006AF8EEE77A9FED3F7A3F4C404963
:107A3400404BB0EE666AA7EEC76A00229A619FEDDA
:107A44003E7A5A61B5EEC06AF1EE10FAF0EE467A6B
:107A540048BFF1EE467A37EEC76A5A63B5EEC06A9C
:107A6400F1EE10FAB8BFF0EE477A37EEE67A1A6311
:107A7400B5EE407AF1EE10FAB7EE007AA8BFF0EE58
:107A8400477A86EEA77ADFED2D7A67EE277A9FEDA7
:107A94002C7AC4ED007A27EE877AFCEEC77A17EECB
:107AA400900A06EE100AB8EE466A01EB8005D5EDA1
:107AB400007A37EE467A95ED016A36EE676A03F18D
:107AC4001C05E7EE067A94ED016A26EE275AB0EE1D
:107AD400677AA5EE277A1C4637EE067AC6EE875AF1
:107AE400F8EE006A26EE257A83ED027A83ED007AB9
:107AF40027EE267A83ED017AB0EE467A95EE277A60
:107B0400D5EE277A27EE257A77EE867A37EE077A4E
:107B140067EEA57A83ED037AC3ED047A0FCC0FC523
:107B240023682B6030BD00BF00000030707B012053
:107B340004B50708787B01206F12833A8FC2F539A8
:107B4400BC9C0244084B00221A605A609A60DA60B6
:107B54001A615A619A61DA611A625A629A62DA6245
:0C7B64001A635A63704700BF787B012051
:087B700048E1FA3E8CB9B33F75
:040000052001784F0F
:00000001FF
